:1000000000200010430000004100000041000000FB
:1000100041000000410000004100000041000000DC
:1000200041000000410000004100000041000000CC
:1000300041000000410000004100000041000000BC
:10004000FEE70B480B490C4A091A05D013780370D8
:10005000013201300139F9DC08480949091A04D094
:100060005B40037001300139FBDC00F02FFDFEE73F
:100070000000001038000010F00A000040000010DE
:1000800040000010300B000008B5002000F07EFC9E
:10009000A0F14103DBB2052B94BF37383038C0B232
:1000A00008BD10B5FFF7F0FF0446FFF7EDFF40EA8B
:1000B0000410C0B210BD00F00F00092894BF30300A
:1000C0003730704710B503460009FFF7F4FF0146CB
:1000D0001846FFF7F0FF0446002000F063FC2146BD
:1000E000BDE81040002000F05DBCF8B50E460746A4
:1000F000FFF7D7FF0546002000F048FC3A2810D152
:10010000B5422C460DDC3E46F31B9D4204DC00202C
:1001100000F03CFC2046F8BDFFF7C3FF06F8010BDA
:10012000F2E74FF0FF34F5E770B50646C8B20D466A
:10013000FFF7C8FF3A21002000F034FC3446A31B2F
:100140009D4205DCBDE870400D21002000F02ABC76
:1001500014F8010BFFF7B6FFF1E710F0800F4FEA3C
:10016000400018BF80F01B00C0B270470246072352
:10017000002010B5FFF7F1FF41FA03F4E40744BF94
:100180005040C0B213F1FF33F4D210BD70B5014638
:10019000FFF7ECFF0646FFF7E9FF3146054630461C
:1001A000FFF7E4FF014604462846FFF7DFFF054658
:1001B0002046FFF7DBFF01462846FFF7D7FF014641
:1001C000FFF7D4FF0146FFF7D1FF01462846FFF7AE
:1001D000CDFFFFF7CBFFBDE870400146FFF7C6BF7C
:1001E00008B5FFF7D3FF80F0630383EAD01383EAF7
:1001F000901383EA501383EA101383EA400383EADF
:10020000800383EAC00383EA0010C0B208BD38B59A
:10021000451EC41C15F8010FFFF7E2FFA542287028
:10022000F8D138BD42780378027082784270C27883
:10023000C37082707047F7B506460F46002401ADC3
:100240000022E31C03F0030306EB830313F8011BF6
:1002500051550132042AF9D14CB92846FFF7E2FF83
:10026000FFF7D5FF9DF804307B408DF80430002364
:1002700006EB84021078E95C01334840042B02F855
:10028000010BF7D10134042CDAD103B0F0BD10B565
:10029000431E01390F3013F8012F11F8014F83422B
:1002A00082EA04021A70F6D110BD38B5451E00F17D
:1002B0000F0415F8010FFFF793FFA5422870F8D13E
:1002C00038BD4179427A437B10B54478427144731A
:1002D000827A8478417043728179837B84728173DE
:1002E000C478C17982708371C27AC37BC471C172D0
:1002F000C273C37010BD2DE9F04101780346427806
:100300008478C6780846FFF728FF80461046FFF736
:1003100024FF07462046FFF720FF05463046FFF73B
:100320001CFF81EA020C624072406140714088EA21
:10033000020286EA0C0684EA0C047A404F406F40C1
:10034000197988EA04047540454060401A705F706E
:100350009D70D87008469C79DE795A79FFF7FDFECA
:1003600080461046FFF7F9FE07462046FFF7F5FEE8
:1003700005463046FFF7F1FE81EA020C624072400A
:100380006140714088EA020286EA0C0684EA0C04A5
:100390007A404F406F40197A88EA0404754045401E
:1003A00060401A715F719D71D87108469C7ADE7A3F
:1003B0005A7AFFF7D2FE80461046FFF7CEFE074678
:1003C0002046FFF7CAFE05463046FFF7C6FE81EA23
:1003D000020C624072406140714088EA020286EA83
:1003E0000C0684EA0C047A404F406F40197B88EA7F
:1003F00004047540454060401A725F729D72D87265
:1004000008469C7BDE7B5A7BFFF7A7FE80461046A2
:10041000FFF7A3FE07462046FFF79FFE054630463E
:10042000FFF79BFE81EA020C62407240614071401E
:1004300088EA02027A4086EA0C064F4084EA0C04FD
:100440006F4088EA04047540454060401A735F734A
:100450009D73D873BDE8F08170472DE9F04188B0F5
:1004600004AE05460B46344601F1100C37461868B9
:100470005968083303C763453E46F7D16B461E46AD
:1004800002F1100C1F4610685168083203C762451C
:100490003B46F7D131462046FFF7F9FE0027DFF84B
:1004A00064802046FFF701FF2046FFF70AFFFFF7B1
:1004B00022FF18F807103046FFF7BDFE013731461E
:1004C0002046FFF7E4FE092FEBD12046FFF7EDFEB3
:1004D0002046FFF7F6FE98F809103046FFF7ABFE0E
:1004E00031462046FFF7D3FE2B4608AD224603CA0D
:1004F000AA4218605960144603F10803F6D108B007
:10050000BDE8F081000000102DE9F04134488EB0C4
:1005100000F0E2F8002860D00AAA1746314B03F138
:100520001005144618685968083303C4AB422246C4
:10053000F7D14FF0100801216846FFF7D6FD0128DA
:10054000054607D068460121FFF7EEFD00200EB0FA
:10055000BDE8F08101466846FFF7E6FD9DF80060C2
:100560004EB1012E1BD0002000F010FA01460020F1
:1005700000F018FADFE70EAC04F8318D294620466A
:10058000FFF7D2FD294620468DF80780FFF7CCFD06
:10059000294620468DF80760FFF7C6FDE3E71021E6
:1005A00006A8FFF7A2FD10280446DCD1002101A80F
:1005B000FFF79BFD05460028D5D1314600F054F8E1
:1005C00001AB3A4606A902A8FFF747FF294628468D
:1005D00000F04AF8214602A8DEE74FF0FF30B6E708
:1005E0000A000010D60A0000054B9B7858430323ED
:1005F00090FBF3F0002801DD0138FDD1704700BF0A
:10060000400000100146002208B58A4200DB08BD08
:100610004FF47A70FFF7E8FF0132F6E7024B002152
:100620001B689869704700BF3200001001280CD089
:1006300003D3022811D000207047094B1A6843F6F3
:10064000FC73D05800F001007047054B1A6843F660
:10065000FC73D058C0F340007047024BF6E700BF70
:100660001A00001016000010012811D002D3022831
:1006700017D070470E4B1A6843F6FC7321B1D1585E
:1006800041F00101D1507047D15821F00101F9E743
:10069000074B1A6843F6FC7329B1D15841F00201A7
:1006A000F0E7044BF5E7D15821F00201EAE700BF7B
:1006B0001A00001016000010024B1B68586900F069
:1006C0000100704726000010024B1B685869C0F3F8
:1006D00040107047260000102DE9F74F804605684E
:1006E000A14810240368A14ED3F880205FFA85FC4E
:1006F00042F48032C3F880209D4A3560116801229F
:100700008A67CA670C6140F20124C1F8A420C1F8CD
:10071000A8200C634C63D3F88010944541F020016D
:10072000C3F88010D3F88010009041F04001C3F866
:100730008010D3F8801041F48051C3F880105968BC
:1007400021F002015960596841F00201596005D059
:1007500026D3BCF1020F05D00024E1E062464FF041
:10076000030900E091464FF0000EC5F30721019107
:10077000C5F307450124019F0EF1010A0AFB07F1A9
:10078000B1FBF4FB04FB1B1008B95D450AD0013432
:10079000B4F5807FF4D1BAF1200FD646EAD1DBE779
:1007A0000022DCE74D009C3DA42D0FD98D009C3D1F
:1007B000A42D40F2B980CD009C3DA42D40F2B6801E
:1007C00009019C39A42900F2CD800320791E132948
:1007D0004EEA401000F2AC8000211962D3F83812C2
:1007E000BCF1000F40F0AA8041F02001C3F838129C
:1007F000C82300BF013BFCD1009B1B681A645A6CE4
:1008000042F001025A645A6C22F001025A645A6C96
:1008100042F001025A645A6CD507FCD59860D3F8AF
:10082000382222F08002C3F83822DA68D107FCD5DA
:10083000C3F870905A6F42F001025A675A6F22F063
:1008400001025A675A6F42F001025A675A6FD20783
:10085000FCD5B1789C67142973D80020454A1268EA
:100860001061454A126802F50040046844F0010432
:100870000460046844F0020404604048006800F525
:100880000040046824F00204046043F6FC7014582D
:1008900024F001041450145824F002041450384A6F
:1008A000C3F898101368D96841F08001D960052118
:1008B0009962996A41F0800199620021596004218E
:1008C0001960D96821F08001D960D96841F003012D
:1008D000D960D96821F00801D960D96821F00401F4
:1008E000D960FFF7E9FE002837D1FFF7EDFE044697
:1008F0000028FAD0234AB378126803EB83035361CC
:100900001361402313606FF07F421F4B1B685A61D5
:100910009A6198F803201AB305221A6100F0D2F800
:10092000204603B0BDE8F08F01204FE702204DE7DD
:100930000F3F0A2F3FF652AF02214EE721F0200170
:1009400054E7282903D80B4A0120126888E7322986
:1009500087D8084A0220126882E713681B68C0E73C
:100960000422DAE70446DBE70E0000104000001026
:10097000120000102E0000101A00001016000010C7
:10098000260000102A0000103200001008B510B92F
:10099000FFF792FEFBE7024B1B681868C0B208BD68
:1009A0002600001008B510B9FFF78EFEFBE7024BDA
:1009B0001B68196008BD00BF260000102DE9F0413A
:1009C000202541EA400C4FF03C0E042738214FF01F
:1009D00024081820354E346825603468656805F0B1
:1009E000F805282D39D014D8102D03D007D805B319
:1009F000082DF3D1C4F808C02760A061EDE7182DD9
:100A00001ED0202DEAD11423236028230220A361C5
:100A100014E0402D2DD006D8302D24D0382DDDD136
:100A2000C4F80080E9E7502D2AD0582D35D0482D44
:100A3000E8E71423236028230120A361BDE8F081A7
:100A40002BB115780132A5602760A161C5E714229A
:100A500022602822A2610020F0E7013BF1D114229C
:100A60002260A561F7E71423236028230320A361F4
:100A7000E4E7012B8ABF2760C4F818E0A161ACE766
:100A8000A468551C14703268013B012B8ABF1760A3
:100A9000C2F818E091612A469FE70BB1A368137072
:100AA000142233681A6028229A61D4E72A000010C1
:100AB00013460A460121FFF781BF13460A4600216B
:100AC000FFF77CBF62B6704772B67047404049403E
:100AD000FFF71AFD7047A1A2D552766729A6F0ED5F
:080AE0001ED8D802EBFF000054
:080AE800000000000000000006
:100AF00001020408102040801B36000C0C0100800D
:100B0000044000400440000000500000015000007C
:100B1000025000000350008000400000004000C070
:080B2000034000E000E00000CA
:00000001FF
