:1000000000200010430000004100000041000000FB
:1000100041000000410000004100000041000000DC
:1000200041000000410000004100000041000000CC
:1000300041000000410000004100000041000000BC
:10004000FEE70B480B490C4A091A05D013780370D8
:10005000013201300139F9DC08480949091A04D094
:100060005B40037001300139FBDC00F081FDFEE7ED
:10007000000000103C000010000C000040000010C8
:1000800044000010400C0000084B30B519680A46C7
:1000900001F11004531A12F8015BDBB2854202D061
:1000A000A242F7D11023184630BD00BF0000001057
:1000B0000F289DBF024B1B68185C5A20704700BF79
:1000C0000000001038B504460546204600F056FDF5
:1000D0002B1B984200D838BD15F8011B002000F0FA
:1000E000B3FCF2E72DE9F041804610781446FFF7A3
:1000F000CBFF06466078FFF7C7FF002540EA0616EB
:100100000334B54204F1020402D12846BDE8F0816F
:1001100014F8020CFFF7B8FF074614F8010CFFF7BC
:10012000B3FF40EA071008F805000135E9E72DE9BB
:10013000F8434B000B3323F0070300AFADEB030D87
:1001400080460E466C466D46002000F071FC0D287E
:10015000A5EB040905F8010BF6D100232246314630
:10016000404604F80930FFF7BDFFBD46BDE8F883FF
:100170002DE9F8438A1C5200D31D23F0070300AF7A
:100180008046ADEB030DC1F30710FFF791FF8DF82B
:10019000000001F00F00FFF78BFF3A236E46454643
:1001A0008DF801008DF802300DF10304A5EB080372
:1001B000994204F102040DDC0024324402F8014C9F
:1001C0003046FFF77FFF0D21204600F03DFCBD4685
:1001D000BDE8F88315F8019B4FEA1910FFF768FF97
:1001E00004F8020C09F00F00FFF762FF04F8010C9D
:1001F000DCE710F0800F4FEA400018BF80F01B00D2
:10020000C0B2704702460723002010B5FFF7F1FF88
:1002100041FA03F4E40744BF5040C0B213F1FF3386
:10022000F4D210BD70B50146FFF7ECFF0646FFF7AC
:10023000E9FF314605463046FFF7E4FF0146044634
:100240002846FFF7DFFF05462046FFF7DBFF0146A4
:100250002846FFF7D7FF0146FFF7D4FF0146FFF717
:10026000D1FF01462846FFF7CDFFFFF7CBFFBDE8E2
:1002700070400146FFF7C6BF08B5FFF7D3FF80F017
:10028000630383EAD01383EA901383EA501383EA6B
:10029000101383EA400383EA800383EAC00383EAFE
:1002A0000010C0B208BD38B50024054DE0B2FFF71C
:1002B000E3FF28550134B4F5807FF7D138BD00BF86
:1002C000440000100449431E033013F8012F8A5CD8
:1002D00083421A70F9D170474400001042780378C5
:1002E000027082784270C278C37082707047F7B52E
:1002F00006460F46002401AD0022E31C03F0030371
:1003000006EB830313F8011B51550132042AF9D17E
:100310004CB92846FFF7E2FFFFF7D4FF9DF8043001
:100320007B408DF80430002306EB84021078E95CF2
:1003300001334840042B02F8010BF7D10134042C9F
:10034000DAD103B0F0BD10B5431E01390F3013F8F8
:10035000012F11F8014F834282EA04021A70F6D18C
:1003600010BD0549431E0F3013F8012F8A5C8342EC
:100370001A70F9D1704700BF440000104179427AE9
:10038000437B10B5447842714473827A847841701B
:1003900043728179837B84728173C478C17982705E
:1003A0008371C27AC37BC471C172C273C37010BD42
:1003B0002DE9F0410178034642788478C6780846F2
:1003C000FFF717FF80461046FFF713FF074620464A
:1003D000FFF70FFF05463046FFF70BFF81EA020CDF
:1003E000624072406140714088EA020286EA0C066F
:1003F00084EA0C047A404F406F40197988EA04047B
:100400007540454060401A705F709D70D870084616
:100410009C79DE795A79FFF7ECFE80461046FFF7AB
:10042000E8FE07462046FFF7E4FE05463046FFF7A4
:10043000E0FE81EA020C624072406140714088EA4D
:10044000020286EA0C0684EA0C047A404F406F40B0
:10045000197A88EA04047540454060401A715F715A
:100460009D71D87108469C7ADE7A5A7AFFF7C1FEF0
:1004700080461046FFF7BDFE07462046FFF7B9FE4F
:1004800005463046FFF7B5FE81EA020C6240724035
:100490006140714088EA020286EA0C0684EA0C0494
:1004A0007A404F406F40197B88EA0404754045400C
:1004B00060401A725F729D72D87208469C7BDE7B28
:1004C0005A7BFFF796FE80461046FFF792FE0746DE
:1004D0002046FFF78EFE05463046FFF78AFE81EA8A
:1004E000020C624072406140714088EA02027A4028
:1004F00086EA0C064F4084EA0C046F4088EA040444
:100500007540454060401A735F739D73D873BDE8B2
:10051000F08170472DE9F04389B004AE05460B46E3
:10052000344601F1100C374618685968083303C780
:1005300063453E46F7D16B461E4602F1100C1F463E
:1005400010685168083203C762453B46F7D131460F
:100550002046FFF7F8FE0027DFF8688008F104095D
:100560002046FFF7FEFE2046FFF708FFFFF720FFBB
:1005700019F807103046FFF7BAFE0137314620461A
:10058000FFF7E1FE092FEBD12046FFF7EAFE2046F8
:10059000FFF7F4FE98F80D103046FFF7A8FE31463D
:1005A0002046FFF7D0FE2B4608AD224603CAAA42DA
:1005B00018605960144603F10803F6D109B0BDE88C
:1005C000F08300BF000000102DE9F0418EB0FFF76E
:1005D0006AFE2C4800F0D2F800284CD00AAA174630
:1005E000294B03F11005144618685968083303C4F1
:1005F000AB422246F7D14FF0100801216846FFF7C1
:1006000096FD012806463BD19DF80050FDB1012D15
:10061000F3D1102106A8FFF78AFD10280446ECD17B
:10062000002101A8FFF783FD06460028E5D12946F1
:1006300000F06CF801AB3A4606A902A8FFF76AFF82
:100640003146304600F062F8214602A810E00EACB8
:1006500004F8318D01462046FFF78AFD31462046D9
:100660008DF80780FFF784FD314620468DF807504E
:10067000FFF77EFDC1E74FF0FF300EB0BDE8F0811F
:100680000020FAE70E000010D80B0000054B9B7805
:100690005843032390FBF3F0002801DD0138FDD11E
:1006A000704700BF440100100146002208B58A428D
:1006B00000DB08BD4FF47A70FFF7E8FF0132F6E780
:1006C000024B00211B689869704700BF360000107C
:1006D00001280CD003D3022811D000207047094B09
:1006E0001A6843F6FC73D05800F001007047054BC0
:1006F0001A6843F6FC73D058C0F340007047024BB1
:10070000F6E700BF1E0000101A000010012811D0EB
:1007100002D3022817D070470E4B1A6843F6FC73B9
:1007200021B1D15841F00101D1507047D15821F089
:100730000101F9E7074B1A6843F6FC7329B1D15858
:1007400041F00201F0E7044BF5E7D15821F0020136
:10075000EAE700BF1E0000101A000010024B1B68E1
:10076000586900F0010070472A000010024B1B6816
:100770005869C0F3401070472A0000102DE9F74F68
:1007800080460568A14810240368A14ED3F8802054
:100790005FFA85FC42F48032C3F880209D4A3560C0
:1007A000116801228A67CA670C6140F20124C1F80E
:1007B000A420C1F8A8200C634C63D3F880109445A2
:1007C00041F02001C3F88010D3F88010009041F070
:1007D0004001C3F88010D3F8801041F48051C3F871
:1007E0008010596821F002015960596841F00201F6
:1007F000596005D026D3BCF1020F05D00024E1E0FA
:1008000062464FF0030900E091464FF0000EC5F339
:1008100007210191C5F307450124019F0EF1010A4B
:100820000AFB07F1B1FBF4FB04FB1B1008B95D45A3
:100830000AD00134B4F5807FF4D1BAF1200FD64646
:10084000EAD1DBE70022DCE74D009C3DA42D0FD967
:100850008D009C3DA42D40F2B980CD009C3DA42D7F
:1008600040F2B68009019C39A42900F2CD80032012
:10087000791E13294EEA401000F2AC800021196263
:10088000D3F83812BCF1000F40F0AA8041F02001EB
:10089000C3F83812C82300BF013BFCD1009B1B6882
:1008A0001A645A6C42F001025A645A6C22F0010236
:1008B0005A645A6C42F001025A645A6CD507FCD54E
:1008C0009860D3F8382222F08002C3F83822DA6820
:1008D000D107FCD5C3F870905A6F42F001025A67F5
:1008E0005A6F22F001025A675A6F42F001025A67AA
:1008F0005A6FD207FCD5B1789C67142973D80020B1
:10090000454A12681061454A126802F500400468C1
:1009100044F001040460046844F0020404604048A8
:10092000006800F50040046824F00204046043F607
:10093000FC70145824F001041450145824F00204DC
:100940001450384AC3F898101368D96841F08001F0
:10095000D96005219962996A41F08001996200216C
:10096000596004211960D96821F08001D960D968E3
:1009700041F00301D960D96821F00801D960D96834
:1009800021F00401D960FFF7E9FE002837D1FFF715
:10099000EDFE04460028FAD0234AB378126803EB30
:1009A000830353611361402313606FF07F421F4B39
:1009B0001B685A619A6198F803201AB305221A61DC
:1009C00000F0D2F8204603B0BDE8F08F01204FE7D9
:1009D00002204DE70F3F0A2F3FF652AF02214EE7AC
:1009E00021F0200154E7282903D80B4A012012687E
:1009F00088E7322987D8084A0220126882E71368FC
:100A00001B68C0E70422DAE70446DBE712000010A7
:100A10004401001016000010320000101E000010EB
:100A20001A0000102A0000102E00001036000010DE
:100A300008B510B9FFF792FEFBE7024B1B68186878
:100A4000C0B208BD2A00001008B510B9FFF78EFE2D
:100A5000FBE7024B1B68196008BD00BF2A000010AD
:100A60002DE9F041202541EA400C4FF03C0E0427CF
:100A700038214FF024081820354E3468256034683A
:100A8000656805F0F805282D39D014D8102D03D04D
:100A900007D805B3082DF3D1C4F808C02760A061BA
:100AA000EDE7182D1ED0202DEAD114232360282332
:100AB0000220A36114E0402D2DD006D8302D24D083
:100AC000382DDDD1C4F80080E9E7502D2AD0582D0B
:100AD00035D0482DE8E71423236028230120A361A3
:100AE000BDE8F0812BB115780132A5602760A161C6
:100AF000C5E7142222602822A2610020F0E7013B12
:100B0000F1D114222260A561F7E714232360282382
:100B10000320A361E4E7012B8ABF2760C4F818E033
:100B2000A161ACE7A468551C14703268013B012B2D
:100B30008ABF1760C2F818E091612A469FE70BB19F
:100B4000A3681370142233681A6028229A61D4E7CC
:100B50002E00001013460A460121FFF781BF1346FD
:100B60000A460021FFF77CBF62B6704772B6704735
:100B700040404940FFF728FD7047000020F0030186
:100B800010F00300C0F1000051F8043B00F1040C28
:100B90004FEACC0C6FF000021CBF22FA0CF2134398
:100BA0004FF0010C4CEA0C2C4CEA0C4CA3EB0C0261
:100BB00022EA030212EACC1204BF51F8043B0430CB
:100BC000F4D0C2F1000102EA0102B2FA82F2C2F1EB
:100BD0001F0200EBD2007047CD9716E95B42DD485B
:100BE00069772A346A7F58133031323334353637D7
:0C0BF000383941424344454600000000F3
:040BFC0000000000F5
:100C0000E80B000001020408102040801B36000C95
:100C10000C0100800440004004400000005000002F
:100C2000015000000250000003500080004000000E
:0C0C3000004000C0034000E000E00000B5
:00000001FF
